{
  "contractName": "Voting",
  "abi": [
    {
      "inputs": [
        {
          "internalType": "string[]",
          "name": "proposalNames",
          "type": "string[]"
        }
      ],
      "stateMutability": "nonpayable",
      "type": "constructor"
    },
    {
      "anonymous": false,
      "inputs": [
        {
          "indexed": true,
          "internalType": "address",
          "name": "voter",
          "type": "address"
        },
        {
          "indexed": false,
          "internalType": "uint256",
          "name": "proposalIndex",
          "type": "uint256"
        }
      ],
      "name": "Voted",
      "type": "event"
    },
    {
      "anonymous": false,
      "inputs": [
        {
          "indexed": true,
          "internalType": "address",
          "name": "voter",
          "type": "address"
        }
      ],
      "name": "VoterAuthorized",
      "type": "event"
    },
    {
      "inputs": [],
      "name": "chairperson",
      "outputs": [
        {
          "internalType": "address",
          "name": "",
          "type": "address"
        }
      ],
      "stateMutability": "view",
      "type": "function"
    },
    {
      "inputs": [
        {
          "internalType": "uint256",
          "name": "",
          "type": "uint256"
        }
      ],
      "name": "proposals",
      "outputs": [
        {
          "internalType": "string",
          "name": "name",
          "type": "string"
        },
        {
          "internalType": "uint256",
          "name": "voteCount",
          "type": "uint256"
        }
      ],
      "stateMutability": "view",
      "type": "function"
    },
    {
      "inputs": [
        {
          "internalType": "address",
          "name": "",
          "type": "address"
        }
      ],
      "name": "voters",
      "outputs": [
        {
          "internalType": "bool",
          "name": "",
          "type": "bool"
        }
      ],
      "stateMutability": "view",
      "type": "function"
    },
    {
      "inputs": [
        {
          "internalType": "address",
          "name": "voter",
          "type": "address"
        }
      ],
      "name": "authorize",
      "outputs": [],
      "stateMutability": "nonpayable",
      "type": "function"
    },
    {
      "inputs": [
        {
          "internalType": "uint256",
          "name": "proposalIndex",
          "type": "uint256"
        }
      ],
      "name": "vote",
      "outputs": [],
      "stateMutability": "nonpayable",
      "type": "function"
    },
    {
      "inputs": [
        {
          "internalType": "uint256",
          "name": "proposalIndex",
          "type": "uint256"
        }
      ],
      "name": "getProposal",
      "outputs": [
        {
          "internalType": "string",
          "name": "",
          "type": "string"
        },
        {
          "internalType": "uint256",
          "name": "",
          "type": "uint256"
        }
      ],
      "stateMutability": "view",
      "type": "function"
    },
    {
      "inputs": [],
      "name": "getNumProposals",
      "outputs": [
        {
          "internalType": "uint256",
          "name": "",
          "type": "uint256"
        }
      ],
      "stateMutability": "view",
      "type": "function"
    }
  ],
  "bytecode": "0x60806040523480156200001157600080fd5b50604051620010eb380380620010eb83398181016040528101906200003791906200037b565b336000806101000a81548173ffffffffffffffffffffffffffffffffffffffff021916908373ffffffffffffffffffffffffffffffffffffffff16021790555060018060008060009054906101000a900473ffffffffffffffffffffffffffffffffffffffff1673ffffffffffffffffffffffffffffffffffffffff1673ffffffffffffffffffffffffffffffffffffffff16815260200190815260200160002060006101000a81548160ff02191690831515021790555060005b8151811015620001bf576002604051806040016040528084848151811062000143577f4e487b7100000000000000000000000000000000000000000000000000000000600052603260045260246000fd5b602002602001015181526020016000815250908060018154018082558091505060019003906000526020600020906002020160009091909190915060008201518160000190805190602001906200019c929190620001c7565b506020820151816001015550508080620001b690620004cc565b915050620000f2565b5050620005a7565b828054620001d59062000496565b90600052602060002090601f016020900481019282620001f9576000855562000245565b82601f106200021457805160ff191683800117855562000245565b8280016001018555821562000245579182015b828111156200024457825182559160200191906001019062000227565b5b50905062000254919062000258565b5090565b5b808211156200027357600081600090555060010162000259565b5090565b60006200028e6200028884620003f4565b620003c0565b9050808382526020820190508260005b85811015620002d25781518501620002b788826200034e565b8452602084019350602083019250506001810190506200029e565b5050509392505050565b6000620002f3620002ed8462000423565b620003c0565b9050828152602081018484840111156200030c57600080fd5b6200031984828562000460565b509392505050565b600082601f8301126200033357600080fd5b81516200034584826020860162000277565b91505092915050565b600082601f8301126200036057600080fd5b815162000372848260208601620002dc565b91505092915050565b6000602082840312156200038e57600080fd5b600082015167ffffffffffffffff811115620003a957600080fd5b620003b78482850162000321565b91505092915050565b6000604051905081810181811067ffffffffffffffff82111715620003ea57620003e962000578565b5b8060405250919050565b600067ffffffffffffffff82111562000412576200041162000578565b5b602082029050602081019050919050565b600067ffffffffffffffff82111562000441576200044062000578565b5b601f19601f8301169050602081019050919050565b6000819050919050565b60005b838110156200048057808201518184015260208101905062000463565b8381111562000490576000848401525b50505050565b60006002820490506001821680620004af57607f821691505b60208210811415620004c657620004c562000549565b5b50919050565b6000620004d98262000456565b91507fffffffffffffffffffffffffffffffffffffffffffffffffffffffffffffffff8214156200050f576200050e6200051a565b5b600182019050919050565b7f4e487b7100000000000000000000000000000000000000000000000000000000600052601160045260246000fd5b7f4e487b7100000000000000000000000000000000000000000000000000000000600052602260045260246000fd5b7f4e487b7100000000000000000000000000000000000000000000000000000000600052604160045260246000fd5b610b3480620005b76000396000f3fe608060405234801561001057600080fd5b506004361061007d5760003560e01c8063798974dd1161005b578063798974dd146100ed578063a3ec138d1461010b578063b6a5d7de1461013b578063c7f758a8146101575761007d565b80630121b93f14610082578063013cf08b1461009e5780632e4176cf146100cf575b600080fd5b61009c600480360381019061009791906106ec565b610188565b005b6100b860048036038101906100b391906106ec565b61030f565b6040516100c6929190610897565b60405180910390f35b6100d76103cb565b6040516100e49190610861565b60405180910390f35b6100f56103ef565b6040516101029190610927565b60405180910390f35b610125600480360381019061012091906106c3565b6103fc565b604051610132919061087c565b60405180910390f35b610155600480360381019061015091906106c3565b61041c565b005b610171600480360381019061016c91906106ec565b610547565b60405161017f929190610897565b60405180910390f35b600160003373ffffffffffffffffffffffffffffffffffffffff1673ffffffffffffffffffffffffffffffffffffffff16815260200190815260200160002060009054906101000a900460ff16610214576040517f08c379a000000000000000000000000000000000000000000000000000000000815260040161020b906108e7565b60405180910390fd5b600280549050811061025b576040517f08c379a000000000000000000000000000000000000000000000000000000000815260040161025290610907565b60405180910390fd5b600160028281548110610297577f4e487b7100000000000000000000000000000000000000000000000000000000600052603260045260246000fd5b906000526020600020906002020160010160008282546102b7919061095e565b925050819055503373ffffffffffffffffffffffffffffffffffffffff167f4d99b957a2bc29a30ebd96a7be8e68fe50a3c701db28a91436490b7d53870ca4826040516103049190610927565b60405180910390a250565b6002818154811061031f57600080fd5b906000526020600020906002020160009150905080600001805461034290610a2f565b80601f016020809104026020016040519081016040528092919081815260200182805461036e90610a2f565b80156103bb5780601f10610390576101008083540402835291602001916103bb565b820191906000526020600020905b81548152906001019060200180831161039e57829003601f168201915b5050505050908060010154905082565b60008054906101000a900473ffffffffffffffffffffffffffffffffffffffff1681565b6000600280549050905090565b60016020528060005260406000206000915054906101000a900460ff1681565b60008054906101000a900473ffffffffffffffffffffffffffffffffffffffff1673ffffffffffffffffffffffffffffffffffffffff163373ffffffffffffffffffffffffffffffffffffffff16146104aa576040517f08c379a00000000000000000000000000000000000000000000000000000000081526004016104a1906108c7565b60405180910390fd5b60018060008373ffffffffffffffffffffffffffffffffffffffff1673ffffffffffffffffffffffffffffffffffffffff16815260200190815260200160002060006101000a81548160ff0219169083151502179055508073ffffffffffffffffffffffffffffffffffffffff167f0ca65a9f1f88bd7257ac852d1062853358f81cdc56f9634dcbeed6090f8dfb4360405160405180910390a250565b606060006002805490508310610592576040517f08c379a000000000000000000000000000000000000000000000000000000000815260040161058990610907565b60405180910390fd5b6000600284815481106105ce577f4e487b7100000000000000000000000000000000000000000000000000000000600052603260045260246000fd5b90600052602060002090600202016040518060400160405290816000820180546105f790610a2f565b80601f016020809104026020016040519081016040528092919081815260200182805461062390610a2f565b80156106705780601f1061064557610100808354040283529160200191610670565b820191906000526020600020905b81548152906001019060200180831161065357829003601f168201915b505050505081526020016001820154815250509050806000015181602001519250925050915091565b6000813590506106a881610ad0565b92915050565b6000813590506106bd81610ae7565b92915050565b6000602082840312156106d557600080fd5b60006106e384828501610699565b91505092915050565b6000602082840312156106fe57600080fd5b600061070c848285016106ae565b91505092915050565b61071e816109b4565b82525050565b61072d816109c6565b82525050565b600061073e82610942565b610748818561094d565b93506107588185602086016109fc565b61076181610abf565b840191505092915050565b600061077960268361094d565b91507f4f6e6c79206368616972706572736f6e2063616e20617574686f72697a65207660008301527f6f746572732e00000000000000000000000000000000000000000000000000006020830152604082019050919050565b60006107df60158361094d565b91507f486173206e6f20726967687420746f20766f74652e00000000000000000000006000830152602082019050919050565b600061081f60178361094d565b91507f496e76616c69642070726f706f73616c20696e6465782e0000000000000000006000830152602082019050919050565b61085b816109f2565b82525050565b60006020820190506108766000830184610715565b92915050565b60006020820190506108916000830184610724565b92915050565b600060408201905081810360008301526108b18185610733565b90506108c06020830184610852565b9392505050565b600060208201905081810360008301526108e08161076c565b9050919050565b60006020820190508181036000830152610900816107d2565b9050919050565b6000602082019050818103600083015261092081610812565b9050919050565b600060208201905061093c6000830184610852565b92915050565b600081519050919050565b600082825260208201905092915050565b6000610969826109f2565b9150610974836109f2565b9250827fffffffffffffffffffffffffffffffffffffffffffffffffffffffffffffffff038211156109a9576109a8610a61565b5b828201905092915050565b60006109bf826109d2565b9050919050565b60008115159050919050565b600073ffffffffffffffffffffffffffffffffffffffff82169050919050565b6000819050919050565b60005b83811015610a1a5780820151818401526020810190506109ff565b83811115610a29576000848401525b50505050565b60006002820490506001821680610a4757607f821691505b60208210811415610a5b57610a5a610a90565b5b50919050565b7f4e487b7100000000000000000000000000000000000000000000000000000000600052601160045260246000fd5b7f4e487b7100000000000000000000000000000000000000000000000000000000600052602260045260246000fd5b6000601f19601f8301169050919050565b610ad9816109b4565b8114610ae457600080fd5b50565b610af0816109f2565b8114610afb57600080fd5b5056fea264697066735822122037487a143e0ef4e17ce960d39434e961683cd0d475e32fca621f08ba185be53064736f6c63430008000033",
  "immutableReferences": {},
  "source": "// contracts/Voting.sol\r\n// SPDX-License-Identifier: MIT\r\npragma solidity ^0.8.0;\r\n\r\ncontract Voting {\r\n    struct Proposal {\r\n        string name;\r\n        uint voteCount;\r\n    }\r\n\r\n    address public chairperson;\r\n    mapping(address => bool) public voters;\r\n    Proposal[] public proposals;\r\n\r\n    event Voted(address indexed voter, uint proposalIndex);\r\n    event VoterAuthorized(address indexed voter); // New Event\r\n\r\n    constructor(string[] memory proposalNames) {\r\n        chairperson = msg.sender;\r\n        voters[chairperson] = true;\r\n\r\n        for (uint i = 0; i < proposalNames.length; i++) {\r\n            proposals.push(Proposal({\r\n                name: proposalNames[i],\r\n                voteCount: 0\r\n            }));\r\n        }\r\n    }\r\n\r\n    // Authorize a voter\r\n    function authorize(address voter) public {\r\n        require(msg.sender == chairperson, \"Only chairperson can authorize voters.\");\r\n        voters[voter] = true;\r\n        emit VoterAuthorized(voter); // Emit Event\r\n    }\r\n\r\n    // Cast a vote\r\n    function vote(uint proposalIndex) public {\r\n        require(voters[msg.sender], \"Has no right to vote.\");\r\n        require(proposalIndex < proposals.length, \"Invalid proposal index.\");\r\n\r\n        proposals[proposalIndex].voteCount += 1;\r\n        emit Voted(msg.sender, proposalIndex);\r\n    }\r\n\r\n    // Get proposal details\r\n    function getProposal(uint proposalIndex) public view returns (string memory, uint) {\r\n        require(proposalIndex < proposals.length, \"Invalid proposal index.\");\r\n        Proposal memory proposal = proposals[proposalIndex];\r\n        return (proposal.name, proposal.voteCount);\r\n    }\r\n\r\n    // Get total number of proposals\r\n    function getNumProposals() public view returns (uint) {\r\n        return proposals.length;\r\n    }\r\n}\r\n",
  "sourcePath": "C:\\Users\\karth\\Documents\\Demo - Blochain DApp\\Simple-Voting-Dapp\\contracts\\Voting.sol",
  "compiler": {
    "name": "solc",
    "version": "0.8.0+commit.c7dfd78e.Emscripten.clang"
  },
  "schemaVersion": "3.4.16",
  "updatedAt": "2024-10-14T09:55:29.649Z",
  "devdoc": {
    "kind": "dev",
    "methods": {},
    "version": 1
  },
  "userdoc": {
    "kind": "user",
    "methods": {},
    "version": 1
  }
}